:100000000C942A000C943C000C943C000C943C0092
:100010000C943C000C943C000C943C000C943C0070
:100020000C943C000C943C000C943C000C943C0060
:100030000C943C000C9446000C943C000C943C0046
:100040000C943C000C943C000C943C000C943C0040
:100050000C943C0011241FBECFE5D8E0DEBFCDBF1D
:1000600020E0A0E6B0E001C01D92A236B207E1F7A1
:100070000E949F000C9413010C94000080E18AB947
:10008000579A86E880BD87E689B908951F920F9236
:100090000FB60F9211248F939F938CB1813451F43A
:1000A000809160009091610001969093610080932F
:1000B000600002C080E185BB9F918F910F900FBEC1
:1000C0000F901F90189596E095BB88BB8FE99FE035
:1000D0000197F1F700C0000082E085BB8FE99FE047
:1000E0000197F1F700C00000089594E095BB88BB2C
:1000F0008FE99FE00197F1F700C0000015BA8FE982
:100100009FE00197F1F700C00000089588E30E9486
:10011000750081E00E9475008EE00E9475000895D0
:10012000CF93DF93EC018881882331F021960E94E0
:10013000630089918111FBCFDF91CF910895CF9317
:10014000DF93CDB7DEB727970FB6F894DEBF0FBEAB
:10015000CDBF8FEF87BB84BB78940E9486000E943E
:100160003E0081E40E94630080EC0E9475004AE03A
:1001700050E0BE016F5F7F4F809160009091610001
:100180000E94D300CE0101960E9490002FEF83EDD4
:1001900090E3215080409040E1F700C0000080ECE7
:1001A0000E947500E4CF4532510520F4423010F032
:1001B0000C94DE00FB011082CB010895BB274A306E
:1001C00031F4992322F4BDE2909581959F4F0C94D0
:1001D000EA00BB27FB015527AA27880F991FAA1FF2
:1001E000A41710F0A41B83955051B9F7A05DAA3352
:1001F00008F0A95DA193009779F7B111B19311921D
:10020000CB010C940301DC01FC01672F7191772372
:10021000E1F7329704C07C916D9370836291AE17C1
:0A022000BF07C8F30895F894FFCF5C
:00000001FF
