:100000000C942A000C9434000C9434000C943400AA
:100010000C9434000C9434000C9434000C94340090
:100020000C9434000C9434000C9434000C94340080
:100030000C9434000C9434000C9434000C94340070
:100040000C9434000C9434000C9434000C94340060
:100050000C94340011241FBECFE5D8E0DEBFCDBF25
:100060000E9441000C9468000C94000088E08AB95A
:1000700086E880BD87E689B908955D9BFECF8CB97F
:1000800008958CEF8ABB83E08BBB0E94360089B356
:100090008370813019F0823071F0F9CF81E40E94D1
:1000A0003D002FEF83EC99E0215080409040E1F734
:1000B00000C00000ECCF82E40E943D002FEF83ECF3
:1000C00099E0215080409040E1F700C00000DFCF70
:0400D000F894FFCFD2
:00000001FF
